{"abi":[{"type":"constructor","inputs":[],"stateMutability":"nonpayable"},{"type":"function","name":"MAX_BOOST_MULTIPLIER","inputs":[],"outputs":[{"name":"","type":"uint256","internalType":"uint256"}],"stateMutability":"view"},{"type":"function","name":"MAX_NFT_STAKABLE_PER_PID","inputs":[],"outputs":[{"name":"","type":"uint256","internalType":"uint256"}],"stateMutability":"view"},{"type":"function","name":"MAX_VNO_PER_BLOCK","inputs":[],"outputs":[{"name":"","type":"uint256","internalType":"uint256"}],"stateMutability":"view"},{"type":"function","name":"UPGRADE_DELAY","inputs":[],"outputs":[{"name":"","type":"uint256","internalType":"uint256"}],"stateMutability":"view"},{"type":"function","name":"add","inputs":[{"name":"_allocPoint","type":"uint256","internalType":"uint256"},{"name":"_lpToken","type":"address","internalType":"contract IERC20Upgradeable"},{"name":"_hasHarvestLock","type":"bool","internalType":"bool"},{"name":"_withUpdate","type":"bool","internalType":"bool"}],"outputs":[],"stateMutability":"nonpayable"},{"type":"function","name":"addVaultPid","inputs":[{"name":"_pids","type":"uint256[]","internalType":"uint256[]"},{"name":"_shares","type":"uint256[]","internalType":"uint256[]"}],"outputs":[],"stateMutability":"nonpayable"},{"type":"function","name":"deposit","inputs":[{"name":"_pid","type":"uint256","internalType":"uint256"},{"name":"_amount","type":"uint256","internalType":"uint256"},{"name":"_vault","type":"address","internalType":"contract IVenoVault"}],"outputs":[],"stateMutability":"nonpayable"},{"type":"function","name":"depositFromFountain","inputs":[{"name":"_pid","type":"uint256","internalType":"uint256"},{"name":"_amount","type":"uint256","internalType":"uint256"},{"name":"_vault","type":"address","internalType":"contract IVenoVault"}],"outputs":[],"stateMutability":"nonpayable"},{"type":"function","name":"disableNft","inputs":[{"name":"_tokenAddress","type":"address","internalType":"address"}],"outputs":[],"stateMutability":"nonpayable"},{"type":"function","name":"emergencyWithdraw","inputs":[{"name":"_pid","type":"uint256","internalType":"uint256"}],"outputs":[],"stateMutability":"nonpayable"},{"type":"function","name":"enableBoostedFarming","inputs":[],"outputs":[],"stateMutability":"nonpayable"},{"type":"function","name":"enableNft","inputs":[{"name":"_tokenAddress","type":"address","internalType":"address"},{"name":"_rarityRegistry","type":"address","internalType":"contract IRarityRegistry"},{"name":"_nftBoostMultiplier","type":"uint16[]","internalType":"uint16[]"}],"outputs":[],"stateMutability":"nonpayable"},{"type":"function","name":"fountain","inputs":[],"outputs":[{"name":"","type":"address","internalType":"contract IVenoVault"}],"stateMutability":"view"},{"type":"function","name":"getBoostMultiplier","inputs":[{"name":"_pid","type":"uint256","internalType":"uint256"},{"name":"_user","type":"address","internalType":"address"}],"outputs":[{"name":"","type":"uint256","internalType":"uint256"}],"stateMutability":"view"},{"type":"function","name":"getNftStakedByAddress","inputs":[{"name":"_pid","type":"uint256","internalType":"uint256"},{"name":"_user","type":"address","internalType":"address"},{"name":"_nftAddress","type":"address","internalType":"address"}],"outputs":[{"name":"","type":"uint256[]","internalType":"uint256[]"}],"stateMutability":"view"},{"type":"function","name":"getVaultPids","inputs":[],"outputs":[{"name":"","type":"uint256[]","internalType":"uint256[]"}],"stateMutability":"view"},{"type":"function","name":"harvestLockRatio","inputs":[],"outputs":[{"name":"","type":"uint256","internalType":"uint256"}],"stateMutability":"view"},{"type":"function","name":"implementationToUpgradeTime","inputs":[{"name":"","type":"address","internalType":"address"}],"outputs":[{"name":"","type":"uint256","internalType":"uint256"}],"stateMutability":"view"},{"type":"function","name":"initialize","inputs":[{"name":"_vno","type":"address","internalType":"contract IVenoToken"},{"name":"_reservoir","type":"address","internalType":"contract IVenoVault"},{"name":"_fountain","type":"address","internalType":"contract IVenoVault"},{"name":"_fountainDepositToken","type":"address","internalType":"contract IERC20Upgradeable"},{"name":"_startBlock","type":"uint256","internalType":"uint256"},{"name":"_vnoPerBlock","type":"uint256","internalType":"uint256"},{"name":"_maxVnoPerBlock","type":"uint256","internalType":"uint256"},{"name":"_upgradeDelay","type":"uint256","internalType":"uint256"}],"outputs":[],"stateMutability":"nonpayable"},{"type":"function","name":"isBoostedFarmingEnabled","inputs":[],"outputs":[{"name":"","type":"bool","internalType":"bool"}],"stateMutability":"view"},{"type":"function","name":"massUpdatePools","inputs":[],"outputs":[],"stateMutability":"nonpayable"},{"type":"function","name":"minVnoRequired","inputs":[{"name":"","type":"uint256","internalType":"uint256"}],"outputs":[{"name":"","type":"uint256","internalType":"uint256"}],"stateMutability":"view"},{"type":"function","name":"minVnoRequiredLength","inputs":[],"outputs":[{"name":"","type":"uint256","internalType":"uint256"}],"stateMutability":"view"},{"type":"function","name":"nftBoostMultipliers","inputs":[{"name":"","type":"address","internalType":"address"},{"name":"","type":"uint256","internalType":"uint256"}],"outputs":[{"name":"","type":"uint16","internalType":"uint16"}],"stateMutability":"view"},{"type":"function","name":"onERC721Received","inputs":[{"name":"","type":"address","internalType":"address"},{"name":"","type":"address","internalType":"address"},{"name":"","type":"uint256","internalType":"uint256"},{"name":"","type":"bytes","internalType":"bytes"}],"outputs":[{"name":"","type":"bytes4","internalType":"bytes4"}],"stateMutability":"pure"},{"type":"function","name":"owner","inputs":[],"outputs":[{"name":"","type":"address","internalType":"address"}],"stateMutability":"view"},{"type":"function","name":"pendingVno","inputs":[{"name":"_pid","type":"uint256","internalType":"uint256"},{"name":"_user","type":"address","internalType":"address"}],"outputs":[{"name":"","type":"uint256","internalType":"uint256"}],"stateMutability":"view"},{"type":"function","name":"pidZeroRatio","inputs":[],"outputs":[{"name":"","type":"uint256","internalType":"uint256"}],"stateMutability":"view"},{"type":"function","name":"poolInfo","inputs":[{"name":"","type":"uint256","internalType":"uint256"}],"outputs":[{"name":"lpToken","type":"address","internalType":"contract IERC20Upgradeable"},{"name":"allocPoint","type":"uint256","internalType":"uint256"},{"name":"lastRewardBlock","type":"uint256","internalType":"uint256"},{"name":"accVnoPerShare","type":"uint256","internalType":"uint256"},{"name":"hasHarvestLock","type":"bool","internalType":"bool"},{"name":"totalBoostedAmount","type":"uint256","internalType":"uint256"}],"stateMutability":"view"},{"type":"function","name":"poolInfoMap","inputs":[{"name":"","type":"address","internalType":"address"}],"outputs":[{"name":"lpToken","type":"address","internalType":"contract IERC20Upgradeable"},{"name":"allocPoint","type":"uint256","internalType":"uint256"},{"name":"lastRewardBlock","type":"uint256","internalType":"uint256"},{"name":"accVnoPerShare","type":"uint256","internalType":"uint256"},{"name":"hasHarvestLock","type":"bool","internalType":"bool"},{"name":"totalBoostedAmount","type":"uint256","internalType":"uint256"}],"stateMutability":"view"},{"type":"function","name":"poolLength","inputs":[],"outputs":[{"name":"","type":"uint256","internalType":"uint256"}],"stateMutability":"view"},{"type":"function","name":"proxiableUUID","inputs":[],"outputs":[{"name":"","type":"bytes32","internalType":"bytes32"}],"stateMutability":"view"},{"type":"function","name":"rarityRegistries","inputs":[{"name":"","type":"address","internalType":"address"}],"outputs":[{"name":"","type":"address","internalType":"contract IRarityRegistry"}],"stateMutability":"view"},{"type":"function","name":"renounceOwnership","inputs":[],"outputs":[],"stateMutability":"nonpayable"},{"type":"function","name":"reservoir","inputs":[],"outputs":[{"name":"","type":"address","internalType":"contract IVenoVault"}],"stateMutability":"view"},{"type":"function","name":"set","inputs":[{"name":"_pid","type":"uint256","internalType":"uint256"},{"name":"_allocPoint","type":"uint256","internalType":"uint256"},{"name":"_hasHarvestLock","type":"bool","internalType":"bool"},{"name":"_withUpdate","type":"bool","internalType":"bool"}],"outputs":[],"stateMutability":"nonpayable"},{"type":"function","name":"setNftMultiplier","inputs":[{"name":"_tokenAddress","type":"address","internalType":"address"},{"name":"_nftBoostMultiplier","type":"uint16[]","internalType":"uint16[]"}],"outputs":[],"stateMutability":"nonpayable"},{"type":"function","name":"setNftRarityRegistry","inputs":[{"name":"_tokenAddress","type":"address","internalType":"address"},{"name":"_rarityRegistry","type":"address","internalType":"contract IRarityRegistry"}],"outputs":[],"stateMutability":"nonpayable"},{"type":"function","name":"setVaultPid","inputs":[{"name":"_pids","type":"uint256[]","internalType":"uint256[]"},{"name":"_shares","type":"uint256[]","internalType":"uint256[]"}],"outputs":[],"stateMutability":"nonpayable"},{"type":"function","name":"setVnoMultiplier","inputs":[{"name":"_minVnoRequired","type":"uint256[]","internalType":"uint256[]"},{"name":"_vnoBoostMultiplier","type":"uint16[]","internalType":"uint16[]"}],"outputs":[],"stateMutability":"nonpayable"},{"type":"function","name":"signalUpgrade","inputs":[{"name":"_implementation","type":"address","internalType":"address"}],"outputs":[],"stateMutability":"nonpayable"},{"type":"function","name":"stakeNft","inputs":[{"name":"_pid","type":"uint256","internalType":"uint256"},{"name":"_nfts","type":"tuple[]","internalType":"struct VenoStormStorage.NFT[]","components":[{"name":"tokenContract","type":"address","internalType":"address"},{"name":"tokenId","type":"uint256","internalType":"uint256"}]}],"outputs":[],"stateMutability":"nonpayable"},{"type":"function","name":"startBlock","inputs":[],"outputs":[{"name":"","type":"uint256","internalType":"uint256"}],"stateMutability":"view"},{"type":"function","name":"totalAllocPoint","inputs":[],"outputs":[{"name":"","type":"uint256","internalType":"uint256"}],"stateMutability":"view"},{"type":"function","name":"totalLockShare","inputs":[],"outputs":[{"name":"","type":"uint256","internalType":"uint256"}],"stateMutability":"view"},{"type":"function","name":"transferOwnership","inputs":[{"name":"newOwner","type":"address","internalType":"address"}],"outputs":[],"stateMutability":"nonpayable"},{"type":"function","name":"unstakeNft","inputs":[{"name":"_pid","type":"uint256","internalType":"uint256"},{"name":"_nfts","type":"tuple[]","internalType":"struct VenoStormStorage.NFT[]","components":[{"name":"tokenContract","type":"address","internalType":"address"},{"name":"tokenId","type":"uint256","internalType":"uint256"}]}],"outputs":[],"stateMutability":"nonpayable"},{"type":"function","name":"updateBoostedAmount","inputs":[{"name":"_user","type":"address","internalType":"address"}],"outputs":[],"stateMutability":"nonpayable"},{"type":"function","name":"updateEmissionRate","inputs":[{"name":"_vnoPerBlock","type":"uint256","internalType":"uint256"}],"outputs":[],"stateMutability":"nonpayable"},{"type":"function","name":"updateHarvestLockRatio","inputs":[{"name":"_ratio","type":"uint256","internalType":"uint256"}],"outputs":[],"stateMutability":"nonpayable"},{"type":"function","name":"updatePidZeroRatio","inputs":[{"name":"_ratio","type":"uint256","internalType":"uint256"}],"outputs":[],"stateMutability":"nonpayable"},{"type":"function","name":"updatePool","inputs":[{"name":"_pid","type":"uint256","internalType":"uint256"}],"outputs":[],"stateMutability":"nonpayable"},{"type":"function","name":"updateVaultApproval","inputs":[{"name":"_vault","type":"address","internalType":"contract IVenoVault"},{"name":"_amount","type":"uint256","internalType":"uint256"}],"outputs":[],"stateMutability":"nonpayable"},{"type":"function","name":"upgradeTo","inputs":[{"name":"newImplementation","type":"address","internalType":"address"}],"outputs":[],"stateMutability":"nonpayable"},{"type":"function","name":"upgradeToAndCall","inputs":[{"name":"newImplementation","type":"address","internalType":"address"},{"name":"data","type":"bytes","internalType":"bytes"}],"outputs":[],"stateMutability":"payable"},{"type":"function","name":"userInfo","inputs":[{"name":"","type":"uint256","internalType":"uint256"},{"name":"","type":"address","internalType":"address"}],"outputs":[{"name":"amount","type":"uint256","internalType":"uint256"},{"name":"rewardDebt","type":"uint256","internalType":"uint256"},{"name":"nftStakedAmount","type":"uint256","internalType":"uint256"},{"name":"boostedMultiplier","type":"uint256","internalType":"uint256"},{"name":"boostedAmount","type":"uint256","internalType":"uint256"},{"name":"pendingHarvest","type":"uint256","internalType":"uint256"}],"stateMutability":"view"},{"type":"function","name":"vaultPidToLockShare","inputs":[{"name":"","type":"uint256","internalType":"uint256"}],"outputs":[{"name":"","type":"uint256","internalType":"uint256"}],"stateMutability":"view"},{"type":"function","name":"vno","inputs":[],"outputs":[{"name":"","type":"address","internalType":"contract IVenoToken"}],"stateMutability":"view"},{"type":"function","name":"vnoBoostMultiplier","inputs":[{"name":"","type":"uint256","internalType":"uint256"}],"outputs":[{"name":"","type":"uint16","internalType":"uint16"}],"stateMutability":"view"},{"type":"function","name":"vnoPerBlock","inputs":[],"outputs":[{"name":"","type":"uint256","internalType":"uint256"}],"stateMutability":"view"},{"type":"function","name":"withdraw","inputs":[{"name":"_pid","type":"uint256","internalType":"uint256"},{"name":"_amount","type":"uint256","internalType":"uint256"},{"name":"_vault","type":"address","internalType":"contract IVenoVault"}],"outputs":[],"stateMutability":"nonpayable"},{"type":"event","name":"Add","inputs":[{"name":"lpToken","type":"address","indexed":false,"internalType":"address"},{"name":"allocPoint","type":"uint256","indexed":false,"internalType":"uint256"},{"name":"hasHarvestLock","type":"bool","indexed":false,"internalType":"bool"}],"anonymous":false},{"type":"event","name":"AddVaultPool","inputs":[{"name":"pids","type":"uint256[]","indexed":false,"internalType":"uint256[]"},{"name":"shares","type":"uint256[]","indexed":false,"internalType":"uint256[]"}],"anonymous":false},{"type":"event","name":"AdminChanged","inputs":[{"name":"previousAdmin","type":"address","indexed":false,"internalType":"address"},{"name":"newAdmin","type":"address","indexed":false,"internalType":"address"}],"anonymous":false},{"type":"event","name":"BeaconUpgraded","inputs":[{"name":"beacon","type":"address","indexed":true,"internalType":"address"}],"anonymous":false},{"type":"event","name":"Deposit","inputs":[{"name":"user","type":"address","indexed":true,"internalType":"address"},{"name":"pid","type":"uint256","indexed":true,"internalType":"uint256"},{"name":"amount","type":"uint256","indexed":false,"internalType":"uint256"}],"anonymous":false},{"type":"event","name":"DepositFromFountain","inputs":[{"name":"user","type":"address","indexed":true,"internalType":"address"},{"name":"pid","type":"uint256","indexed":true,"internalType":"uint256"},{"name":"amount","type":"uint256","indexed":false,"internalType":"uint256"}],"anonymous":false},{"type":"event","name":"DisableToken","inputs":[{"name":"tokenContract","type":"address","indexed":true,"internalType":"address"}],"anonymous":false},{"type":"event","name":"EmergencyWithdraw","inputs":[{"name":"user","type":"address","indexed":true,"internalType":"address"},{"name":"pid","type":"uint256","indexed":true,"internalType":"uint256"},{"name":"amount","type":"uint256","indexed":false,"internalType":"uint256"}],"anonymous":false},{"type":"event","name":"EnableBoostedFarming","inputs":[],"anonymous":false},{"type":"event","name":"EnableToken","inputs":[{"name":"tokenContract","type":"address","indexed":true,"internalType":"address"}],"anonymous":false},{"type":"event","name":"Initialized","inputs":[{"name":"version","type":"uint8","indexed":false,"internalType":"uint8"}],"anonymous":false},{"type":"event","name":"OwnershipTransferred","inputs":[{"name":"previousOwner","type":"address","indexed":true,"internalType":"address"},{"name":"newOwner","type":"address","indexed":true,"internalType":"address"}],"anonymous":false},{"type":"event","name":"Set","inputs":[{"name":"pid","type":"uint256","indexed":false,"internalType":"uint256"},{"name":"allocPoint","type":"uint256","indexed":false,"internalType":"uint256"},{"name":"hasHarvestLock","type":"bool","indexed":false,"internalType":"bool"}],"anonymous":false},{"type":"event","name":"SetNftMultiplier","inputs":[{"name":"tokenAddress","type":"address","indexed":true,"internalType":"address"},{"name":"nftBoostMultiplier","type":"uint16[]","indexed":false,"internalType":"uint16[]"}],"anonymous":false},{"type":"event","name":"SetNftRarityRegistry","inputs":[{"name":"tokenAddress","type":"address","indexed":true,"internalType":"address"},{"name":"_rarityRegistry","type":"address","indexed":false,"internalType":"contract IRarityRegistry"}],"anonymous":false},{"type":"event","name":"SetVaultPool","inputs":[{"name":"pids","type":"uint256[]","indexed":false,"internalType":"uint256[]"},{"name":"shares","type":"uint256[]","indexed":false,"internalType":"uint256[]"}],"anonymous":false},{"type":"event","name":"SetVnoMultiplier","inputs":[{"name":"minVnoRequired","type":"uint256[]","indexed":false,"internalType":"uint256[]"},{"name":"vnoBoostMultiplier","type":"uint16[]","indexed":false,"internalType":"uint16[]"}],"anonymous":false},{"type":"event","name":"SignalUpgrade","inputs":[{"name":"","type":"address","indexed":false,"internalType":"address"},{"name":"","type":"uint256","indexed":false,"internalType":"uint256"}],"anonymous":false},{"type":"event","name":"Stake","inputs":[{"name":"tokenContract","type":"address","indexed":true,"internalType":"address"},{"name":"staker","type":"address","indexed":true,"internalType":"address"},{"name":"tokenId","type":"uint256","indexed":true,"internalType":"uint256"}],"anonymous":false},{"type":"event","name":"StakeNft","inputs":[{"name":"user","type":"address","indexed":true,"internalType":"address"},{"name":"pid","type":"uint256","indexed":true,"internalType":"uint256"}],"anonymous":false},{"type":"event","name":"Unstake","inputs":[{"name":"tokenContract","type":"address","indexed":true,"internalType":"address"},{"name":"staker","type":"address","indexed":true,"internalType":"address"},{"name":"tokenId","type":"uint256","indexed":true,"internalType":"uint256"}],"anonymous":false},{"type":"event","name":"UnstakeNft","inputs":[{"name":"user","type":"address","indexed":true,"internalType":"address"},{"name":"pid","type":"uint256","indexed":true,"internalType":"uint256"}],"anonymous":false},{"type":"event","name":"UpdateEmissionRate","inputs":[{"name":"newVnoPerBlock","type":"uint256","indexed":false,"internalType":"uint256"}],"anonymous":false},{"type":"event","name":"UpdateLockRatio","inputs":[{"name":"newRatio","type":"uint256","indexed":false,"internalType":"uint256"}],"anonymous":false},{"type":"event","name":"UpdatePidBoostedAmount","inputs":[{"name":"user","type":"address","indexed":true,"internalType":"address"},{"name":"pid","type":"uint256","indexed":true,"internalType":"uint256"},{"name":"newBoostedAmount","type":"uint256","indexed":false,"internalType":"uint256"}],"anonymous":false},{"type":"event","name":"UpdatePidZeroRatio","inputs":[{"name":"newRatio","type":"uint256","indexed":false,"internalType":"uint256"}],"anonymous":false},{"type":"event","name":"UpdateVaultApproval","inputs":[{"name":"vault","type":"address","indexed":false,"internalType":"address"},{"name":"amount","type":"uint256","indexed":false,"internalType":"uint256"}],"anonymous":false},{"type":"event","name":"Upgraded","inputs":[{"name":"implementation","type":"address","indexed":true,"internalType":"address"}],"anonymous":false},{"type":"event","name":"Withdraw","inputs":[{"name":"user","type":"address","indexed":true,"internalType":"address"},{"name":"pid","type":"uint256","indexed":true,"internalType":"uint256"},{"name":"amount","type":"uint256","indexed":false,"internalType":"uint256"}],"anonymous":false}],"bytecode":{"object":"0x60a08060405234620000e157306080526000549060ff8260081c166200008f575060ff8082161062000053575b60405161551c9081620000e78239608051818181611ecd0152818161213f01526125f30152f35b60ff90811916176000557f7f26b83ff96e1f2b6a682f133852f6798a09c465da95921460cefb3847402498602060405160ff8152a1386200002c565b62461bcd60e51b815260206004820152602760248201527f496e697469616c697a61626c653a20636f6e747261637420697320696e697469604482015266616c697a696e6760c81b6064820152608490fd5b600080fdfe6080604052600436101561001257600080fd5b60003560e01c806303fee8d314613581578063074fc4dc14613546578063081e3eda146135285780630953c8c7146134745780630ad58d2f146132795780630ba84cd21461316a5780630c8cb7951461314c578063115709451461306e5780631218c59814612fe0578063150b7a0214612f77578063151e6aa514612f4e5780631526fe2714612e1157806317caf6f114612df35780631b6d8b4914612d585780631e55989c14612d1957806320fde21c14612cf0578063276a29ba14612c0a5780632e1428a81461287f5780633659cfe6146125cf5780633b84d03d1461241e57806347fe8b1d1461240057806348cd4cb1146123e25780634f1ef286146120c457806351eb05a6146120a8578063525613d414611f7e57806352d1902d14611eba5780635312ea8e14611e055780635a9b62ef14611de9578063630b5ba114611dd0578063680376fe14611db25780636bba2b2c14611a425780636fbf412914611a08578063715018a6146119a657806372afba22146119855780637539174a146117a15780638b7a01ef146117835780638bd8f3ef146117605780638c86a91c146114a55780638cb8c8f0146113205780638da5cb5b146112f75780638dbdbe6d146112945780638fcbd6d21461120457806393c46737146111e757806393f1a40b14611168578063a705b6591461114a578063b4d53a0414611089578063b8383f251461104d578063c4c21b3e14610fca578063c507aeaa14610e04578063c843e81c146108ef578063cef4bfdd1461088f578063d23ee17014610773578063d7f3dfb91461071a578063e73f51c7146106fc578063ed5f9947146106d0578063f0f17a031461047a578063f24053b314610451578063f2fde38b146103c2578063f542f5f9146103a4578063fb865dbd146103765763fd667649146102bb57600080fd5b34610371576020366003190112610371576004356102d7613a33565b60648111610310576020817f0aef0f02e0170c5ea07fd3b3fe553559b4e32419595ee0bf511b778d37048a499260d955604051908152a1005b60405162461bcd60e51b815260206004820152603360248201527f56656e6f53746f726d3a20757064617465486172766573744c6f636b526174696044820152726f3a206d757374206265206c7465203130302560681b6064820152608490fd5b600080fd5b3461037157604036600319011261037157602061039c61039461367a565b600435614935565b604051908152f35b3461037157600036600319011261037157602060df54604051908152f35b34610371576020366003190112610371576103db613690565b6103e3613a33565b6001600160a01b038116156103fd576103fb90613a8b565b005b60405162461bcd60e51b815260206004820152602660248201527f4f776e61626c653a206e6577206f776e657220697320746865207a65726f206160448201526564647265737360d01b6064820152608490fd5b346103715760003660031901126103715760d0546040516001600160a01b039091168152602090f35b3461037157606036600319011261037157610493613690565b61049b61367a565b906044356001600160401b038111610371576104bb903690600401613825565b9190926104c6613a33565b60405163aae282e160e01b81526020926001600160a01b0392831692918481600481875afa9081156106685761050b9284916000936106a1575b5016921682146144cd565b604051637bfbbacb60e01b81528381600481865afa90811561066857600091610674575b506040516325762b7f60e01b81528481600481875afa918215610668578691600093610633575b5061056a92610564916140fd565b1461450b565b61057381613ff0565b50807f1f4b6598cc34e310cc34bcfcb372afb5ba5af654fad97b26cc10ae8289f1c62f6000604051a260005260e382526040600020906001600160601b0360a01b82541617905560e281526040600020926105ce838561456e565b926000528060002090600080945b8486106105e557005b8260029161ffff806105f6836145d6565b16908754908660031b90811b9283911b1691191617865501910194601e8611610624575b60010194906105dc565b6000955060019093019261061a565b925090508482813d8111610661575b61064c818361389e565b81010312610371579051908590610564610556565b503d610642565b6040513d6000823e3d90fd5b90508381813d831161069a575b61068b818361389e565b8101031261037157518661052f565b503d610681565b6106c2919350873d89116106c9575b6106ba818361389e565b8101906144ae565b9189610500565b503d6106b0565b346103715760203660031901126103715760043560005260dc6020526020604060002054604051908152f35b3461037157600036600319011261037157602060d854604051908152f35b3461037157610728366136bc565b60d0546001600160a01b0316330361037157610745908284614184565b6040519081527f44dd0d5d4c1ae725b839a98b43fe8f692d5ffaf0affc9201dd58de264b8f197160203392a3005b346103715761078136613925565b610789613a33565b6107968251825114613ec2565b6000915b8051831015610858576107ad8382613f1d565b51926107b98184613f1d565b518460005260209460db865260406000205415610820576107fa93949560dc91600052526040600020549080604060002055808203610801575b5050613f0e565b919061079a565b6108179061081260dd938454613eb7565b613cdf565b905584806107f3565b60405162461bcd60e51b815260048101879052601060248201526f1c1a59081a5cc81b9bdd08185919195960821b6044820152606490fd5b7fe3268713fc74f8f5e1ebeea7c6e53799a6156cb459dea6c9a52c6cdea2855152925061088a60405192839283613f4c565b0390a1005b34610371576040366003190112610371576108a8613690565b6001600160a01b0316600090815260e2602052604090208054602435908110156103715760209160005261ffff826000208260041c015460f06040519360041b161c168152f35b3461037157610100366003190112610371576001600160a01b03600435818116908190036103715761091f61367a565b916109286136a6565b90606490813590808216809203610371576084359460a4359260c4359460e435956000549560ff8760081c16159a8b809c610df7575b8015610de0575b15610d855760ff19888116600117600055978c610d73575b508515610d2f578616988915610ce0578616948515610c92578415610c3757438b1115610bf357818310610bb0578815610b755785906001600160601b0360a01b908160ce54161760ce558a8160cf54161760cf5560d054161760d0558960d75560d15560d25560d855604b60d955604051906109f982613868565b8152610a296103e891602098838a83015260408201526000606082015260006080820152600060a0820152613df8565b60d6558160ce5416946040519063095ea7b360e01b9081835260048301528782604481600080199b8c60248401525af18015610668578894604493600092610b58575b5060ce541660405198899586948552600485015260248401525af192831561066857610acc93610b2b575b5060de541660de5560ff60005460081c1690610ab282613e57565b606555610abe81613e57565b610ac781613e57565b613e57565b610ad533613a8b565b60005491610aec60ff8460081c16610ac781613e57565b600160e455610af757005b7f7f26b83ff96e1f2b6a682f133852f6798a09c465da95921460cefb38474024989161ff00191660005560405160018152a1005b610b4a90853d8711610b51575b610b42818361389e565b810190613e3f565b5085610a97565b503d610b38565b610b6e90873d8911610b5157610b42818361389e565b508b610a6c565b60405162461bcd60e51b81526020600482015260146024820152737570677261646544656c6179206973207a65726f60601b60448201528490fd5b8360405162461bcd60e51b815260206004820152602060248201527f6d617820766e6f2070657220626c6f636b206d757374206265206869676865726044820152fd5b60405162461bcd60e51b815260206004820152601f60248201527f537461727420626c6f636b2073686f756c6420626520696e206675747572650060448201528490fd5b60405162461bcd60e51b815260206004820152602e60248201527f5f666f756e7461696e4465706f736974546f6b656e2073686f756c64206e6f7460448201526d206265206164647265737328302960901b81860152608490fd5b60405162461bcd60e51b815260206004820152602160248201527f666f756e7461696e2073686f756c64206e6f74206265206164647265737328306044820152602960f81b81860152608490fd5b60405162461bcd60e51b815260206004820152602260248201527f7265736572766f69722073686f756c64206e6f74206265206164647265737328604482015261302960f01b81860152608490fd5b60405162461bcd60e51b815260206004820152601c60248201527f766e6f2073686f756c64206e6f7420626520616464726573732830290000000060448201528490fd5b61ffff1916610101176000558c61097d565b60405162461bcd60e51b815260206004820152602e60248201527f496e697469616c697a61626c653a20636f6e747261637420697320616c72656160448201526d191e481a5b9a5d1a585b1a5e995960921b81860152608490fd5b50303b1580156109655750600160ff891614610965565b50600160ff89161061095e565b3461037157608036600319011261037157600435610e2061367a565b90610e296139d5565b610e316139e4565b91610e3a613a33565b60018060a01b0380941692836000528360209560d587526040600020541614610f8557606460d85414610f3257907fed82e583db57ebdf40c1ecb9553621210c016b4648722d45ff0231fcc5dc9dcf946060949392610f25575b60d754804311600014610f1b5750610f0243935b610eb48460d654613cdf565b60d65560405194610ec486613868565b86865284848701526040860152600087860152151593846080820152600060a0820152610ef081613df8565b8560005260d583526040600020613d95565b610f0a615412565b6040519384528301526040820152a1005b610f029093610ea8565b610f2d615049565b610e94565b60405162461bcd60e51b815260048101869052602560248201527f41646a75737420706964207a65726f20726174696f2062656c6f772031303020604482015264199a5c9cdd60da1b6064820152608490fd5b60405162461bcd60e51b815260048101869052601960248201527f56656e6f53746f726d3a206578697374696e6720706f6f6c3f000000000000006044820152606490fd5b34610371576020366003190112610371577f183e2335bd7c9df9aa40bbfb075ebaf3b331dbf63a371cdf4d523f953f38effb611004613690565b61100c613a33565b61101860655442613cdf565b6001600160a01b039091166000818152606660209081526040918290208490558151928352820192909252908190810161088a565b346103715760203660031901126103715760043560e0548110156103715761ffff6110796020926139f3565b9190546040519260031b1c168152f35b34610371576020366003190112610371576110a2613690565b6110aa613a33565b6001600160a01b0316600081815260cd60205260409020541561037157806110d3600092614652565b5060405190807f3907c2f289c906800bbef774e6e4a476623eae8c1abc6cd0a78ef88aba9a62258484a2825260e3602052604082206001600160601b0360a01b815416905560e26020526040822080548382558061112f575050f35b611148918452600f60208520910160041c810190614557565bf35b3461037157600036600319011261037157602060d254604051908152f35b346103715760403660031901126103715761118161367a565b60043560005260d460205260406000209060018060a01b031660005260205260c0604060002080549060018101549060028101546003820154906005600484015493015493604051958652602086015260408501526060840152608083015260a0820152f35b34610371576000366003190112610371576020604051614e208152f35b34610371576000366003190112610371576040518060da5480825282602080930160da6000527fb3d6e86317c38844915b053a0c35ff2fc103b684e96cef2918ab06844eb51aaf9260005b8582821061127e575050506112669250038361389e565b61127a60405192828493845283019061376b565b0390f35b855484526001958601958895509301920161124f565b34610371576112c46112a5366136bc565b6112b8600260e495939495541415614094565b600260e4558284614184565b6040519081527f90890809c654f11d6e72a28fa60149770a0d11ec6c92319d6ceb2bb0a4ea1a1560203392a3600160e455005b34610371576000366003190112610371576099546040516001600160a01b039091168152602090f35b34610371576080366003190112610371577fc66cec52f6fc7c7c09b5f02578bd330a548d6b039f8ba5b5703204565bdb335b60606004356024356113626139d5565b9061136b6139e4565b611373613a33565b611498575b6001611383846136e6565b500154816001611392866136e6565b5001556113b78360046113a4876136e6565b50019060ff801983541691151516179055565b6113c0846136e6565b506113ca856136e6565b50546001600160a01b03908116600090815260d5602052604090209190818303611433575b50505081808203611412575b5050604051928352602083015215156040820152a1005b6108126114219260d654613eb7565b60d65561142c615412565b85816113fb565b8160059291839254166001600160601b0360a01b85541617845560018101546001850155600281015460028501556003810154600385015561148b60ff600483015416600486019060ff801983541691151516179055565b01549101558680806113ef565b6114a0615049565b611378565b34610371576114b336613986565b6114c5600260e4949394541415614094565b600260e4556114d3826136e6565b50928260005260209160d4835260406000203360005283526040600020926114fa85615071565b6004840192835480611722575b50600285019160005b84811061157557600088886001670de0b6b3a76400006115418e60038d6115373389615138565b54910154906140fd565b0491015560405190337f8ebd96702c3b07e3aa633cba7b9b1bdb3950cedf4dadc03e8ab558333c11d9708484a3600160e455f35b61158861158382878661462e565b61463e565b908261159582888761462e565b013560018060a01b038093168060005260cb80865260406000203360005286526115d383604060002060019160005201602052604060002054151590565b156116ea5781600052855260406000203360005285526115f782604060002061473d565b50803b1561037157604051632142170760e11b81523060048201523360248201526044810183905260008160648183865af18015610668576116db575b5033907f390b1276974b9463e5d66ab10df69b6f3d7b930eb066a0e66df327edd2cc811c6000604051a484549182156116c5576116c0926000190186558960005260e184526040600020336000528452604060002090611698611583848a8961462e565b1660005283526116ba6040600020846116b2848a8961462e565b01359061473d565b50613f0e565b611510565b634e487b7160e01b600052601160045260246000fd5b6116e490613855565b8c611634565b60405162461bcd60e51b815260048101879052601060248201526f151bdad95b881b9bdd081cdd185ad95960821b6044820152606490fd5b670de0b6b3a764000061173d6117499260038b0154906140fd565b04600187015490613eb7565b61175860058701918254613cdf565b905587611507565b3461037157600036600319011261037157602060ff60de54166040519015158152f35b3461037157600036600319011261037157602060d154604051908152f35b34610371576040366003190112610371576117ba613690565b6024356001600160401b038111610371576117d9903690600401613825565b6117e4929192613a33565b60018060a01b03809216918260005260209060cd8252604060002054156103715760e3825260406000205416604051637bfbbacb60e01b81528281600481855afa908115610668578390600092611957575b506040516325762b7f60e01b81529192829060049082905afa918215610668578491600093611922575b5061186e92610564916140fd565b8260005260e281526040600020611885838261456e565b600090815281812081865b8582106118d45760405185815287907fee69116074b4edf5062d2d2d5cf0d03ffbd32ee56cf90f0782593a374b01966c90806118cf818a018b8e6145e5565b0390a2005b8460029161ffff806118e5836145d6565b16908654908860031b90811b9283911b1691191617855501930190601e8211611913575b6001019092611890565b60019092019160009150611909565b925090508282813d8111611950575b61193b818361389e565b81010312610371579051908390610564611860565b503d611931565b809250813d831161197e575b61196d818361389e565b810103126103715751826004611836565b503d611963565b34610371576020366003190112610371576103fb6119a1613690565b61482e565b34610371576000366003190112610371576119bf613a33565b609980546001600160a01b0319811690915560405160009182906001600160a01b03167f8be0079c531659141344cd1fd0a4f28419497f9722a3daafe3b4186f6b6457e08284a3f35b34610371576020366003190112610371576001600160a01b03611a29613690565b1660005260666020526020604060002054604051908152f35b3461037157611a5036613986565b9190600160ff60de5416151503611d6d57611a70600260e4541415614094565b600260e455611a7e826136e6565b50908260005260d46020526040600020336000526020526040600020936005611aab826002880154613cdf565b11611d3b57611ab984615071565b6004850191825480611cfd575b5060005b828110611b2557600086886001670de0b6b3a7640000611af18a60038b6115373389615138565b0491015560405190337fcedcb7619cdd73f5806e0d56fa9401f1f7e53328f5a01ca7ea7075e0d115e9ad8484a3600160e455f35b611b3361158382858561462e565b906020611b4182868661462e565b013560018060a01b03831660005260cd602052604060002054156103715760cb602052604060002033600052602052611b8e81604060002060019160005201602052604060002054151590565b611cc1576001600160a01b0383163b1561037157604051632142170760e11b81523360048201523060248201526044810182905292600084606481836001600160a01b0386165af193841561066857611cad94611cb2575b5060018060a01b03811660005260cb602052604060002033600052602052611c1282604060002061403d565b5060405133916001600160a01b0316907f99039fcf0a98f484616c5196ee8b2ecfa971babf0b519848289ea4db381f85f790600090a4611c556002890154613f0e565b60028901558660005260e1602052604060002033600052602052604060002060018060a01b03611c8961158384888861462e565b166000526020526116ba60406000206020611ca584888861462e565b01359061403d565b611aca565b611cbb90613855565b8a611be6565b60405162461bcd60e51b8152602060048201526014602482015273151bdad95b88185b1c9958591e481cdd185ad95960621b6044820152606490fd5b670de0b6b3a7640000611d18611d24926003880154906140fd565b04600188015490613eb7565b611d3360058801918254613cdf565b905586611ac6565b60405162461bcd60e51b815260206004820152600a60248201526913d5915497d31253525560b21b6044820152606490fd5b60405162461bcd60e51b815260206004820152601960248201527f424f4f5354494e475f4641524d494e475f44495341424c4544000000000000006044820152606490fd5b3461037157600036600319011261037157602060d954604051908152f35b34610371576000366003190112610371576103fb615049565b3461037157600036600319011261037157602060405160058152f35b3461037157602036600319011261037157600060048035611e2b600260e4541415614094565b600260e455611eb1611e3c826136e6565b509180855260d460205260408520338652602052611e6c604086209360018060a01b039054168454903390614475565b8083546040519081527fbb757047c2b5f3974fe26b7c10f732e7bce710b0952a71082702781e62ae059560203392a38483558460018401558460058401553390615138565b0155600160e455005b34610371576000366003190112610371577f00000000000000000000000000000000000000000000000000000000000000006001600160a01b03163003611f135760206040516000805160206154a78339815191528152f35b60405162461bcd60e51b815260206004820152603860248201527f555550535570677261646561626c653a206d757374206e6f742062652063616c60448201527f6c6564207468726f7567682064656c656761746563616c6c00000000000000006064820152608490fd5b3461037157604036600319011261037157611f97613690565b602435611fa2613a33565b60cf546001600160a01b03928316929081168314801561209b575b1561206a5760ce5460405163095ea7b360e01b81526001600160a01b038516600482015260248101849052939160209185916044918391600091165af1928315610668577fb63a36df393c7063902b6eac879023a338c4fc91cb33ea3c21f20e9726f556869361204c575b50604080516001600160a01b0390921682526020820192909252908190810161088a565b6120639060203d8111610b5157610b42818361389e565b5083612028565b60405162461bcd60e51b8152602060048201526009602482015268139bdd081d985d5b1d60ba1b6044820152606490fd5b508060d054168314611fbd565b34610371576020366003190112610371576103fb600435615071565b6040366003190112610371576120d8613690565b60249081356001600160401b0381116103715736602382011215610371578060040135906121058261396b565b612112604051918261389e565b82815260209283820192368783830101116103715781600092888793018637830101526001600160a01b037f000000000000000000000000000000000000000000000000000000000000000081169061216d30831415613ad6565b61218a6000805160206154a7833981519152928284541614613b37565b61219386613ceb565b7f4910fdfa16fed3260ed0e7147f7cc6da11a60208b5b9406d12a635614ffd91435460ff16156121cc5750505050506103fb9150613b98565b85949516906040516352d1902d60e01b81528681600481865afa600091816123b3575b5061224f5760405162461bcd60e51b815260048101889052602e818a01527f45524331393637557067726164653a206e657720696d706c656d656e7461746960448201526d6f6e206973206e6f74205555505360901b6064820152608490fd5b9691929394960361235e5761226386613b98565b604051917fbc7cd75a20ee27fd9adebab32041f755214dbc6bffa90cc0225b39da2e5c2d3b600084a2825115801590612356575b61229d57005b853b156123065750506103fb93600092839251915af46122bb613c28565b907f416464726573733a206c6f772d6c6576656c2064656c65676174652063616c6c604051936122ea85613883565b60278552840152660819985a5b195960ca1b6040840152613c58565b62461bcd60e51b8252600482018590526026908201527f416464726573733a2064656c65676174652063616c6c20746f206e6f6e2d636f6044820152651b9d1c9858dd60d21b6064820152608490fd5b506001612297565b8460296084926040519262461bcd60e51b845260048401528201527f45524331393637557067726164653a20756e737570706f727465642070726f786044820152681a58589b195555525160ba1b6064820152fd5b9091508781813d83116123db575b6123cb818361389e565b81010312610371575190896121ef565b503d6123c1565b3461037157600036600319011261037157602060d754604051908152f35b34610371576000366003190112610371576020606554604051908152f35b346103715761242c36613925565b90612435613a33565b6124428151835114613ec2565b60005b815181101561259e576124588183613f1d565b51906124648185613f1d565b518260005260209260db84526040600020546125645760018060a01b03938460cf5416916040519586936000631526fe2760e01b9182875284600488015260609687918160249485925af1928315610668576000998794612547575b5060d0541691604051998a93849283528660048401525af1928315610668576125169660dc9461251b575b50506124f681613f71565b50600052528060406000205561250f60dd918254613cdf565b9055613f0e565b612445565b8161253a92903d10612540575b612532818361389e565b810190613f31565b506124eb565b503d612528565b61255d90853d871161254057612532818361389e565b50506124c0565b60405162461bcd60e51b81526004810185905260126024820152711c1a59081a185cc81899595b88185919195960721b6044820152606490fd5b6040517ffcccc82811ef74b1fcd1eb033610136a01a7058ab43e2765bfdb812948e23c79908061088a868683613f4c565b3461037157602080600319360112610371576125e9613690565b6001600160a01b037f0000000000000000000000000000000000000000000000000000000000000000811661262030821415613ad6565b61263d6000805160206154a7833981519152918383541614613b37565b61264683613ceb565b60405190848201928284106001600160401b0385111761286957836040526000835260ff7f4910fdfa16fed3260ed0e7147f7cc6da11a60208b5b9406d12a635614ffd914354166000146126a257505050506103fb9150613b98565b8416906040516352d1902d60e01b81528681600481865afa6000918161283a575b506127245760405162461bcd60e51b815260048101889052602e60248201527f45524331393637557067726164653a206e657720696d706c656d656e7461746960448201526d6f6e206973206e6f74205555505360901b6064820152608490fd5b036127e35761273284613b98565b604051907fbc7cd75a20ee27fd9adebab32041f755214dbc6bffa90cc0225b39da2e5c2d3b600083a28151158015906127db575b61276c57005b833b1561278a57506103fb9392600092839251915af46122bb613c28565b62461bcd60e51b815260048101859052602660248201527f416464726573733a2064656c65676174652063616c6c20746f206e6f6e2d636f6044820152651b9d1c9858dd60d21b6064820152608490fd5b506000612766565b60405162461bcd60e51b815260048101869052602960248201527f45524331393637557067726164653a20756e737570706f727465642070726f786044820152681a58589b195555525160ba1b6064820152608490fd5b9091508781813d8311612862575b612852818361389e565b81010312610371575190886126c3565b503d612848565b634e487b7160e01b600052604160045260246000fd5b34610371576040366003190112610371576001600160401b03600435818111610371576128b0903690600401613825565b91906024918235908111610371576128cc903690600401613825565b9390926128d7613a33565b60ff60de5416612bc657848203612b90578115612b7c5782351580612b62575b15612b2857600160401b808311612b135760df548360df55808410612aef575b506000805160206154c78339815191526000855b858210612ad9575050508511612ac5575060e0548460e055808510612a3a575b5060e060009081527f8b43726243eeaf8325404568abece3264b546cf9d88671f09c24c87045fccb4f81855b8782106129eb57505060408051818152908101849052949150506001600160fb1b038211610371577f081de4976bf3b50ba6d1d6267e661f64576571328cce157d332dfde46ac9a9cc94849361088a9360051b809160608701378401916060858185019460008652030160208601526145e5565b602060029161ffff806129fd836145d6565b16908654908860031b90811b9283911b1691191617855501930190601e8211612a2b575b6001019092612977565b60019092019160009150612a21565b612a8490600f860160041c601e8760011b1680612a8a575b50600f7f8b43726243eeaf8325404568abece3264b546cf9d88671f09c24c87045fccb4f920160041c82019101614557565b8461294b565b7f8b43726243eeaf8325404568abece3264b546cf9d88671f09c24c87045fccb4e8201908154906000199060200360031b1c16905587612a52565b634e487b7160e01b60009081526041600452fd5b600160208282933586550193019101909161292b565b612b0d90846000805160206154c78339815191529182019101614557565b86612917565b50634e487b7160e01b60009081526041600452fd5b60649060136040519162461bcd60e51b835260206004840152820152720494e4445585f305f53484f554c445f42455f3606c1b6044820152fd5b508415612b7c5761ffff612b75856145d6565b16156128f7565b634e487b7160e01b60009081526032600452fd5b606490600f6040519162461bcd60e51b8352602060048401528201526e09a92a69a82a88690be988a9c8ea89608b1b6044820152fd5b606490601e6040519162461bcd60e51b8352602060048401528201527f424f4f535445445f4641524d5f454e41424c45445f4e4f5f55504441544500006044820152fd5b3461037157604036600319011261037157612c23613690565b612c2b61367a565b90612c34613a33565b60018060a01b03809116918260005260209060cd82526040600020541561037157821660405163aae282e160e01b81528281600481855afa908115610668577f11c4bd0b77ad17b97541e534129df06d76cdd48b9058d03a00083b9c30d1049a94612cab928792600091612cd3575b5016146144cd565b8360005260e382526040600020816001600160601b0360a01b825416179055604051908152a2005b612cea9150863d88116106c9576106ba818361389e565b88612ca3565b346103715760003660031901126103715760ce546040516001600160a01b039091168152602090f35b346103715760203660031901126103715760043560df548110156103715760209060df6000526000805160206154c78339815191520154604051908152f35b3461037157606036600319011261037157612d7161367a565b612d796136a6565b60043560005260209160e18352604060002060018060a01b038092166000528352604060002091166000528152604060002090604051808383829554938481520190600052836000209260005b85828210612ddd575050506112669250038361389e565b8554845260019586019588955093019201612dc6565b3461037157600036600319011261037157602060d654604051908152f35b346103715760203660031901126103715760043560d3548110156103715760d36000526006027f915c3eb987b20e1af620c1403197bf687fb7f18513b3a73fde6e78c7072c41a68101547f915c3eb987b20e1af620c1403197bf687fb7f18513b3a73fde6e78c7072c41a78201547f915c3eb987b20e1af620c1403197bf687fb7f18513b3a73fde6e78c7072c41a88301547f915c3eb987b20e1af620c1403197bf687fb7f18513b3a73fde6e78c7072c41a98401547f915c3eb987b20e1af620c1403197bf687fb7f18513b3a73fde6e78c7072c41aa8501547f915c3eb987b20e1af620c1403197bf687fb7f18513b3a73fde6e78c7072c41ab90950154604080516001600160a01b039096168652602086019490945292840191909152606083015260ff9092161515608082015260a081019190915260c090f35b346103715760003660031901126103715760cf546040516001600160a01b039091168152602090f35b3461037157608036600319011261037157612f90613690565b50612f9961367a565b506064356001600160401b038082116103715736602383011215610371578160040135908111610371573691016024011161037157604051630a85bd0160e11b8152602090f35b34610371576020366003190112610371576001600160a01b0380613002613690565b1660005260d560205260406000209081541661127a6001830154926002810154906003810154600560ff60048401541692015492604051968796879260a094919796959260c0850198600180881b03168552602085015260408401526060830152151560808201520152565b3461037157600036600319011261037157613087613a33565b60de5460ff81166131155760df54156130d05760ff191660011760de556040516000907fb99479076201b9a6305cae35f25793c7ae73e0460d0e83af087e0e77ddf00ad28282a1f35b60405162461bcd60e51b815260206004820152601860248201527f564e4f5f4d554c5449504c4945525f4e4f545f534554555000000000000000006044820152606490fd5b60405162461bcd60e51b815260206004820152600f60248201526e1053149150511657d1539050931151608a1b6044820152606490fd5b3461037157600036600319011261037157602060dd54604051908152f35b3461037157602036600319011261037157600435613186613a33565b60d25481116132295760d15481146131d15760207f232bc60e54c3a684fb69d1cde365a10c51105f4f8ba47a6cd0c5435192010a9c916131c4615049565b8060d155604051908152a1005b60405162461bcd60e51b815260206004820152602a60248201527f56656e6f53746f726d3a20766e6f506572426c6f636b2069732073616d65206160448201526973206578697374696e6760b01b6064820152608490fd5b60405162461bcd60e51b815260206004820152602260248201527f56656e6f53746f726d3a20766e6f506572426c6f636b20697320746f6f2068696044820152610ced60f31b6064820152608490fd5b3461037157613287366136bc565b613296600260e4541415614094565b600260e4556132a4836136e6565b508360005260d460205260406000203360005260205260406000208381541061343a5760ff6004830154166133cd575b6133079161334d916132e587615071565b6004810190868254936003810194670de0b6b3a76400009788918754906140fd565b049761331960018501998a5490613eb7565b61332860058601918254613cdf565b806133ad575b50505081613383575b5050506133443388615138565b549054906140fd565b0490556040519081527ff279e6a1f5e320cca91135676d9cb6e44ca8a08c0b88342bcdb1144f6511b56860203392a3600160e455005b82613392836133a59554613eb7565b90555433906001600160a01b0316614475565b878681613337565b6000926133c4916133bd86614130565b90336151d1565b558a808061332e565b60cf546001600160a01b0384811691811682149190821561342c575b50506132d45760405162461bcd60e51b8152602060048201526015602482015274496e76616c6964207661756c74206164647265737360581b6044820152606490fd5b60d0541614905086806133e9565b60405162461bcd60e51b81526020600482015260126024820152711dda5d1a191c985dce881b9bdd0819dbdbd960721b6044820152606490fd5b3461037157602036600319011261037157600435613490613a33565b606481116134d95760207f1494a05c87f048e66e31c8aafb233cb52cca8267cf85d29fc1844f8aaadd0d52916134c4615049565b8060d8556134d0615412565b604051908152a1005b60405162461bcd60e51b815260206004820152602160248201527f56656e6f53746f726d3a20726174696f206d757374206265206c7465203130306044820152602560f81b6064820152608490fd5b3461037157600036600319011261037157602060d354604051908152f35b346103715760203660031901126103715760206001600160a01b038061356a613690565b1660005260e3825260406000205416604051908152f35b3461037157604036600319011261037157602061039c6004356135a261367a565b6135ab826136e6565b509160005260d4845260406000209060018060a01b031660005283526005613615670de0b6b3a76400006136096040600020946003810154908581015490600281015480431180613671575b61361d575b50505060048601546140fd565b04600184015490613eb7565b910154613cdf565b9161365e61365961365061366394600161364761363e6136699a9943613eb7565b60d154906140fd565b910154906140fd565b60d65490614110565b6140e0565b614110565b90613cdf565b8880806135fc565b508215156135f7565b602435906001600160a01b038216820361037157565b600435906001600160a01b038216820361037157565b604435906001600160a01b038216820361037157565b60609060031901126103715760043590602435906044356001600160a01b03811681036103715790565b60d3548110156137215760069060d3600052027f915c3eb987b20e1af620c1403197bf687fb7f18513b3a73fde6e78c7072c41a60190600090565b634e487b7160e01b600052603260045260246000fd5b60d354156137215760d36000527f915c3eb987b20e1af620c1403197bf687fb7f18513b3a73fde6e78c7072c41a690600090565b90815180825260208080930193019160005b82811061378b575050505090565b83518552938101939281019260010161377d565b60cc548110156137215760cc6000527f47197230e1e4b29fc0bd84d7d78966c0925452aff72a2a121538b102457e9ebe0190600090565b60da548110156137215760da6000527fb3d6e86317c38844915b053a0c35ff2fc103b684e96cef2918ab06844eb51aaf0190600090565b80548210156137215760005260206000200190600090565b9181601f84011215610371578235916001600160401b038311610371576020808501948460051b01011161037157565b6001600160401b03811161286957604052565b60c081019081106001600160401b0382111761286957604052565b606081019081106001600160401b0382111761286957604052565b90601f801991011681019081106001600160401b0382111761286957604052565b9080601f83011215610371578135906001600160401b038211612869578160051b604051936020936138f38584018761389e565b85528380860192820101928311610371578301905b828210613916575050505090565b81358152908301908301613908565b906040600319830112610371576001600160401b036004358181116103715783613951916004016138bf565b9260243591821161037157613968916004016138bf565b90565b6001600160401b03811161286957601f01601f191660200190565b604060031982011261037157600435916024356001600160401b039283821161037157806023830112156103715781600401359384116103715760248460061b83010111610371576024019190565b60443590811515820361037157565b60643590811515820361037157565b9060e0548210156137215760e0600052601e8260041c7f8b43726243eeaf8325404568abece3264b546cf9d88671f09c24c87045fccb4f019260011b1690565b6099546001600160a01b03163303613a4757565b606460405162461bcd60e51b815260206004820152602060248201527f4f776e61626c653a2063616c6c6572206973206e6f7420746865206f776e65726044820152fd5b6099549060018060a01b0380911691826001600160601b0360a01b821617609955167f8be0079c531659141344cd1fd0a4f28419497f9722a3daafe3b4186f6b6457e06000604051a3565b15613add57565b60405162461bcd60e51b815260206004820152602c60248201527f46756e6374696f6e206d7573742062652063616c6c6564207468726f7567682060448201526b19195b1959d85d1958d85b1b60a21b6064820152608490fd5b15613b3e57565b60405162461bcd60e51b815260206004820152602c60248201527f46756e6374696f6e206d7573742062652063616c6c6564207468726f7567682060448201526b6163746976652070726f787960a01b6064820152608490fd5b803b15613bcd576000805160206154a783398151915280546001600160a01b0319166001600160a01b03909216919091179055565b60405162461bcd60e51b815260206004820152602d60248201527f455243313936373a206e657720696d706c656d656e746174696f6e206973206e60448201526c1bdd08184818dbdb9d1c9858dd609a1b6064820152608490fd5b3d15613c53573d90613c398261396b565b91613c47604051938461389e565b82523d6000602084013e565b606090565b90919015613c64575090565b815115613c745750805190602001fd5b6040519062461bcd60e51b82528160208060048301528251928360248401526000915b848310613cc6575050918060449311613cb9575b601f01601f19168101030190fd5b6000838284010152613cab565b8183018101518684016044015285935091820191613c97565b811981116116c5570190565b613cf3613a33565b6001600160a01b03166000818152606660205260409020548015613d61574210613d2857600052606660205260006040812055565b60405162461bcd60e51b81526020600482015260116024820152705354494c4c5f554e4445525f44454c415960781b6044820152606490fd5b60405162461bcd60e51b815260206004820152600c60248201526b1393d517d4d251d39053115160a21b6044820152606490fd5b9060a0600591600180831b038151166001600160601b03831b855416178455602081015160018501556040810151600285015560608101516003850155613df160808201511515600486019060ff801983541691151516179055565b0151910155565b60d354600160401b81101561286957806001613e17920160d3556136e6565b919091613e2957613e2791613d95565b565b634e487b7160e01b600052600060045260246000fd5b90816020910312610371575180151581036103715790565b15613e5e57565b60405162461bcd60e51b815260206004820152602b60248201527f496e697469616c697a61626c653a20636f6e7472616374206973206e6f74206960448201526a6e697469616c697a696e6760a81b6064820152608490fd5b8181106116c5570390565b15613ec957565b60405162461bcd60e51b815260206004820152601f60248201527f5f706964732e6c656e6774682021203d205f7368617265732e6c656e677468006044820152606490fd5b60001981146116c55760010190565b80518210156137215760209160051b010190565b90816060910312610371578051916040602083015192015190565b9091613f636139689360408452604084019061376b565b91602081840391015261376b565b600081815260db6020526040812054613feb5760da54600160401b811015613fd7579082613fc3613faa8460016040960160da556137d6565b819391549060031b600019811b9283911b169119161790565b905560da5492815260db6020522055600190565b634e487b7160e01b82526041600452602482fd5b905090565b600081815260cd6020526040812054613feb5760cc54600160401b811015613fd7579082614029613faa8460016040960160cc5561379f565b905560cc5492815260cd6020522055600190565b600082815260018201602052604090205461408d57805490600160401b8210156128695782614076613faa84600180960185558461380d565b905580549260005201602052604060002055600190565b5050600090565b1561409b57565b60405162461bcd60e51b815260206004820152601f60248201527f5265656e7472616e637947756172643a207265656e7472616e742063616c6c006044820152606490fd5b670de0b6b3a76400009080600019048211811515166116c5570290565b80600019048211811515166116c5570290565b811561411a570490565b634e487b7160e01b600052601260045260246000fd5b9060405161413d81613868565b82546001600160a01b03168152600183015460208201526002830154604082015260038301546060820152600483015460ff161515608082015260059092015460a0830152565b9161418e836136e6565b50908360005260d460205260406000203360005260205260406000209160ff6004820154166142d4575b614202670de0b6b3a76400009160036001946141d389615071565b600587019081549160048901928354806142ad575b5080614294575b50505087614234575b611537338a615138565b049101556040519081527f90890809c654f11d6e72a28fa60149770a0d11ec6c92319d6ceb2bb0a4ea1a1560203392a3565b82546040516323b872dd60e01b6020820152336024820152306044820152606481018a90526142829160a089901b8990031661427d82608481015b03601f19810184528361389e565b614339565b61428d888854613cdf565b87556141f8565b6000926142a4916133bd88614130565b553880806141ef565b90613663896142c36142ce94898b0154906140fd565b048b8d015490613eb7565b386141e8565b60cf546001600160a01b0383811691811682149190821561432b575b50506141b85760405162461bcd60e51b815260206004820152600d60248201526c1253959053125117d590555315609a1b6044820152606490fd5b60d0541614905038806142f0565b604080516001600160a01b0392909216929082016001600160401b03811183821017612869576040526020928383527f5361666545524332303a206c6f772d6c6576656c2063616c6c206661696c656484840152803b1561443057600082819282876143b49796519301915af16143ae613c28565b90613c58565b805190816143c157505050565b82806143d1938301019101613e3f565b156143d95750565b6084906040519062461bcd60e51b82526004820152602a60248201527f5361666545524332303a204552433230206f7065726174696f6e20646964206e6044820152691bdd081cdd58d8d9595960b21b6064820152fd5b60405162461bcd60e51b815260048101859052601d60248201527f416464726573733a2063616c6c20746f206e6f6e2d636f6e74726163740000006044820152606490fd5b60405163a9059cbb60e01b60208201526001600160a01b0390921660248301526044820192909252613e279161427d826064810161426f565b9081602091031261037157516001600160a01b03811681036103715790565b156144d457565b60405162461bcd60e51b815260206004820152600f60248201526e4d49534d415443485f52415249545960881b6044820152606490fd5b1561451257565b60405162461bcd60e51b815260206004820152601960248201527f4d49534d415443485f424f4f53545f4d55544c49504c494552000000000000006044820152606490fd5b818110614562575050565b60008155600101614557565b90600160401b811161286957815481835580821061458b57505050565b613e2792600052600f602060002091601e82850160041c84019460011b16806145bb575b500160041c0190614557565b600019908186019182549160200360031b1c169055386145af565b3561ffff811681036103715790565b9190808252602080920192916000805b83821061460457505050505090565b9091929394853561ffff811680910361462a5781528301948301939291600101906145f5565b8280fd5b91908110156137215760061b0190565b356001600160a01b03811681036103715790565b600081815260cd602052604081205490919080156147385760018110614724576000199081810160cc5460018110614710578301908082036146dc575b50505060cc5480156146c8578101906146a78261379f565b909182549160031b1b1916905560cc55815260cd6020526040812055600190565b634e487b7160e01b84526031600452602484fd5b6146fa6146eb613faa9361379f565b90549060031b1c92839261379f565b9055845260cd602052604084205538808061468f565b634e487b7160e01b86526011600452602486fd5b634e487b7160e01b83526011600452602483fd5b505090565b90600182019060009281845282602052604084205490811515600014614827576001821061481357600019918281018254600181106147ff578401908082036147ca575b505050805480156147b657820191614799838361380d565b909182549160031b1b191690555582526020526040812055600190565b634e487b7160e01b86526031600452602486fd5b6147ea6147da613faa938661380d565b90549060031b1c9283928661380d565b90558652846020526040862055388080614781565b634e487b7160e01b88526011600452602488fd5b634e487b7160e01b85526011600452602485fd5b5050505090565b60d0546001600160a01b0390811633148015614928575b801561491b575b156103715760ff60de541615614917576001918291825b61486e575b50505050565b60d3548310156149125761490c8493600081815260209060d482526040918282209086881683525220600481018054156107f3576149046148d8916148b2856136e6565b50906148bd86615071565b60038154920191670de0b6b3a76400009485918454906140fd565b04946148f860056148ee8d840198895490613eb7565b9201918254613cdf565b90556133448987615138565b049055613f0e565b92614863565b614868565b5050565b508060995416331461484c565b508060cf54163314614845565b906127109160ff60de5416156147385760cf546040516370a0823160e01b8082526001600160a01b0385811660048401529192909160209184916024918391165afa91821561066857600092615015575b5060d0546040519182526001600160a01b03858116600484015260209183916024918391165afa90811561066857600091614fe1575b506149c691613cdf565b8015614fdb5760019060df805491838310916000198401945b848110614f4b575b50505050505060009060cc54915b828110614a0e5750505050614e20808211613feb575090565b614a178161379f565b90546001600160a01b0360039290921b1c8116600090815260e3602052604090205416614a438261379f565b60018060a01b0391549060031b1c1660005260e2602052604060002090604051808360208295549384815201906000526020600020926000905b80600f830110614e8057614b13945491818110614e6b575b818110614e53575b818110614e3c575b818110614e24575b818110614e0c575b818110614df4575b818110614ddc575b818110614dc4575b818110614dac575b818110614d94575b818110614d7c575b818110614d64575b818110614d4c575b818110614d34575b818110614d1c575b10614d0e575b50038361389e565b604051637bfbbacb60e01b815290602082600481845afa91821561066857600092614cda575b508460009392935260e1602052604060002060018060a01b0388166000526020526040600020614b688561379f565b60018060a01b0391549060031b1c166000526020526040600020926000938054925b838610614ba557505050505050614ba090613f0e565b6149f5565b909192939499614bb58b8461380d565b9054604051636ab5025560e01b815260039290921b1c6004820152602081602481865afa90811561066857600091614ca8575b50614bf38c8561380d565b9054604051632783162d60e11b815260039290921b1c6004820152602081602481875afa908115610668578690600092614c6e575b5061081290614c36936140fd565b600181106116c557614c649161ffff614c56614c5e93600019018a613f1d565b511690613cdf565b9a613f0e565b9493929190614b8a565b9190506020823d602011614ca0575b81614c8a6020938361389e565b81010312614c9d57505185610812614c28565b80fd5b3d9150614c7d565b906020823d602011614cd2575b81614cc26020938361389e565b81010312614c9d57505138614be8565b3d9150614cb5565b90916020823d602011614d06575b81614cf56020938361389e565b81010312614c9d5750519038614b39565b3d9150614ce8565b60f01c815260200138614b0b565b92602060019161ffff8560e01c168152019301614b05565b92602060019161ffff8560d01c168152019301614afd565b92602060019161ffff8560c01c168152019301614af5565b92602060019161ffff8560b01c168152019301614aed565b92602060019161ffff8560a01c168152019301614ae5565b92602060019161ffff8560901c168152019301614add565b92602060019161ffff8560801c168152019301614ad5565b92602060019161ffff8560701c168152019301614acd565b92602060019161ffff8560601c168152019301614ac5565b92602060019161ffff8560501c168152019301614abd565b92602060019161ffff8560401c168152019301614ab5565b92602060019161ffff8560301c168152019301614aad565b92602060019161ffff85831c168152019301614aa5565b92602060019161ffff8560101c168152019301614a9d565b92602060019161ffff85168152019301614a95565b916010919350610200600191865461ffff80821683528082871c166020840152808260201c166040840152816060828260301c16818601528282608092828260401c1684890152828260a0828260501c16818c0152828260c0951c16848c0152828260e0988d8a848460701c169101521c166101008c0152828260901c166101208c01521c16610140890152828260b01c166101608901521c16610180860152828260d01c166101a08601521c166101c083015260f01c6101e0820152019401920185929391614a7d565b81600052806000805160206154c783398151915201548310614fac57836116c557858114614f82575b614f7d90613f0e565b6149df565b97614fa4614f7d9161ffff614f968c6139f3565b90549060031b1c1690613cdf565b989050614f74565b9597945050505050600182106116c55761ffff614f96614fcf93600019016139f3565b913880808080806149e7565b50505090565b906020823d60201161500d575b81614ffb6020938361389e565b81010312614c9d5750516149c66149bc565b3d9150614fee565b90916020823d602011615041575b816150306020938361389e565b81010312614c9d5750519038614986565b3d9150615023565b60d35460005b81811061505a575050565b8061506761506c92615071565b613f0e565b61504f565b61507a906136e6565b50600281019081544311156149175760058101548015615131576150b36136506150a861363e865443613eb7565b6001850154906140fd565b60ce546001600160a01b0316803b15610371576040516340c10f1960e01b815230600482015260248101839052906000908290604490829084905af1801561066857615114575b506148ee61510d9261365e6003936140e0565b9055439055565b906001600160401b038211612869576040919091526148ee6150fa565b5050439055565b908160005260d46020527fbbacf2af3d098ef792fe6bba3eabf02728fad225c791450e37020483f0522fc36020600560406000209360018060a01b0381169485600052835260406000206151a6615199615191896136e6565b509389614935565b80600384015582546140fd565b928392016151c560046151ba858454613cdf565b930192835490613eb7565b905555604051908152a3565b60018060a01b03908160ce54169160409485519687916370a0823160e01b835282600496308883015260209a8b9160249687915afa908115615407576000916153da575b508088116153d1575b506080015161529f57505060ce54855163a9059cbb60e01b81526001600160a01b039093169383019384526020840194909452909392859285929190911690829060009082906040015b03925af1908115615295575061527c575050565b8161529292903d10610b5157610b42818361389e565b50565b513d6000823e3d90fd5b909597929496606494929493846152b860d9548b6140fd565b049060005b60da5481101561537f576152d0816137d6565b919054600392831b1c60005260dc85528c60002054806152fb575b506152f69150613f0e565b6152bd565b61530861531191866140fd565b60dd5490614110565b8987169261531e836137d6565b9054911b1c833b1561037157898f60008f968f8f9083978f95519a8b98899763481086bf60e11b89528801528601521660448401525af1918215615374576152f692156152eb5761536e90613855565b386152eb565b8d513d6000823e3d90fd5b5099969250615268975081989394506153a0906000929660ce541694613eb7565b865163a9059cbb60e01b81526001600160a01b03909316948301948552602085015290958693849291839160400190565b9650608061521e565b908a82813d8311615400575b6153f0818361389e565b81010312614c9d57505138615215565b503d6153e6565b89513d6000823e3d90fd5b60d354600060019182905b80821061547e5750508061542f575050565b61543c60d85480926140fd565b816064106116c5576154519160640390614110565b9061546e8261081260d65484615465613737565b50015490613eb7565b60d655615479613737565b500155565b909161549a6154a09185615491866136e6565b50015490613cdf565b92613f0e565b9061541d56fe360894a13ba1a3210667c828492db98dca3e2076cc3735a920a3ca505d382bbc65e3d48fa860a761b461ce1274f0d562f3db9a6a57cf04d8c90d68f5670b6aeaa2646970667358221220cdf9b21f1680fbe3db6e44308b3a0e36937e437a78a11d3188a68ff5d551e19564736f6c634300080f0033","linkReferences":{}},"methodIdentifiers":{"MAX_BOOST_MULTIPLIER()":"93c46737","MAX_NFT_STAKABLE_PER_PID()":"5a9b62ef","MAX_VNO_PER_BLOCK()":"a705b659","UPGRADE_DELAY()":"47fe8b1d","add(uint256,address,bool,bool)":"c507aeaa","addVaultPid(uint256[],uint256[])":"3b84d03d","deposit(uint256,uint256,address)":"8dbdbe6d","depositFromFountain(uint256,uint256,address)":"d7f3dfb9","disableNft(address)":"b4d53a04","emergencyWithdraw(uint256)":"5312ea8e","enableBoostedFarming()":"11570945","enableNft(address,address,uint16[])":"f0f17a03","fountain()":"f24053b3","getBoostMultiplier(uint256,address)":"fb865dbd","getNftStakedByAddress(uint256,address,address)":"1b6d8b49","getVaultPids()":"8fcbd6d2","harvestLockRatio()":"680376fe","implementationToUpgradeTime(address)":"6fbf4129","initialize(address,address,address,address,uint256,uint256,uint256,uint256)":"c843e81c","isBoostedFarmingEnabled()":"8bd8f3ef","massUpdatePools()":"630b5ba1","minVnoRequired(uint256)":"1e55989c","minVnoRequiredLength()":"f542f5f9","nftBoostMultipliers(address,uint256)":"cef4bfdd","onERC721Received(address,address,uint256,bytes)":"150b7a02","owner()":"8da5cb5b","pendingVno(uint256,address)":"03fee8d3","pidZeroRatio()":"e73f51c7","poolInfo(uint256)":"1526fe27","poolInfoMap(address)":"1218c598","poolLength()":"081e3eda","proxiableUUID()":"52d1902d","rarityRegistries(address)":"074fc4dc","renounceOwnership()":"715018a6","reservoir()":"151e6aa5","set(uint256,uint256,bool,bool)":"8cb8c8f0","setNftMultiplier(address,uint16[])":"7539174a","setNftRarityRegistry(address,address)":"276a29ba","setVaultPid(uint256[],uint256[])":"d23ee170","setVnoMultiplier(uint256[],uint16[])":"2e1428a8","signalUpgrade(address)":"c4c21b3e","stakeNft(uint256,(address,uint256)[])":"6bba2b2c","startBlock()":"48cd4cb1","totalAllocPoint()":"17caf6f1","totalLockShare()":"0c8cb795","transferOwnership(address)":"f2fde38b","unstakeNft(uint256,(address,uint256)[])":"8c86a91c","updateBoostedAmount(address)":"72afba22","updateEmissionRate(uint256)":"0ba84cd2","updateHarvestLockRatio(uint256)":"fd667649","updatePidZeroRatio(uint256)":"0953c8c7","updatePool(uint256)":"51eb05a6","updateVaultApproval(address,uint256)":"525613d4","upgradeTo(address)":"3659cfe6","upgradeToAndCall(address,bytes)":"4f1ef286","userInfo(uint256,address)":"93f1a40b","vaultPidToLockShare(uint256)":"ed5f9947","vno()":"20fde21c","vnoBoostMultiplier(uint256)":"b8383f25","vnoPerBlock()":"8b7a01ef","withdraw(uint256,uint256,address)":"0ad58d2f"},"id":27}