{"abi":[{"type":"function","name":"DIFF1_TARGET","inputs":[],"outputs":[{"name":"","type":"uint256","internalType":"uint256"}],"stateMutability":"view"},{"type":"function","name":"ERR_BAD_ARG","inputs":[],"outputs":[{"name":"","type":"uint256","internalType":"uint256"}],"stateMutability":"view"},{"type":"function","name":"RETARGET_PERIOD","inputs":[],"outputs":[{"name":"","type":"uint256","internalType":"uint256"}],"stateMutability":"view"},{"type":"function","name":"RETARGET_PERIOD_BLOCKS","inputs":[],"outputs":[{"name":"","type":"uint256","internalType":"uint256"}],"stateMutability":"view"}],"bytecode":{"object":"0x6080806040523460185760d7908161001d823930815050f35b5f80fdfe60808060405260043610156011575f80fd5b5f3560e01c908163056e04ec14608c575080638cc715691460765780638db69e601460615763d4258ca7146043575f80fd5b5f366003190112605d5760405161ffff60d01b8152602090f35b5f80fd5b5f366003190112605d5760206040515f198152f35b5f366003190112605d5760206040516107e08152f35b5f366003190112605d57806212750060209252f3fea2646970667358221220f7eed864d5ecc42aa119641eaaa7c66c980919ae8efc27fa6722917f317e3cf964736f6c634300081a0033","linkReferences":{}},"methodIdentifiers":{"DIFF1_TARGET()":"d4258ca7","ERR_BAD_ARG()":"8db69e60","RETARGET_PERIOD()":"056e04ec","RETARGET_PERIOD_BLOCKS()":"8cc71569"},"id":0}