{"abi":[{"type":"function","name":"MAX_BOOST_MULTIPLIER","inputs":[],"outputs":[{"name":"","type":"uint256","internalType":"uint256"}],"stateMutability":"view"},{"type":"function","name":"MAX_NFT_STAKABLE_PER_PID","inputs":[],"outputs":[{"name":"","type":"uint256","internalType":"uint256"}],"stateMutability":"view"},{"type":"function","name":"MAX_VNO_PER_BLOCK","inputs":[],"outputs":[{"name":"","type":"uint256","internalType":"uint256"}],"stateMutability":"view"},{"type":"function","name":"fountain","inputs":[],"outputs":[{"name":"","type":"address","internalType":"contract IVenoVault"}],"stateMutability":"view"},{"type":"function","name":"harvestLockRatio","inputs":[],"outputs":[{"name":"","type":"uint256","internalType":"uint256"}],"stateMutability":"view"},{"type":"function","name":"isBoostedFarmingEnabled","inputs":[],"outputs":[{"name":"","type":"bool","internalType":"bool"}],"stateMutability":"view"},{"type":"function","name":"minVnoRequired","inputs":[{"name":"","type":"uint256","internalType":"uint256"}],"outputs":[{"name":"","type":"uint256","internalType":"uint256"}],"stateMutability":"view"},{"type":"function","name":"nftBoostMultipliers","inputs":[{"name":"","type":"address","internalType":"address"},{"name":"","type":"uint256","internalType":"uint256"}],"outputs":[{"name":"","type":"uint16","internalType":"uint16"}],"stateMutability":"view"},{"type":"function","name":"pidZeroRatio","inputs":[],"outputs":[{"name":"","type":"uint256","internalType":"uint256"}],"stateMutability":"view"},{"type":"function","name":"poolInfo","inputs":[{"name":"","type":"uint256","internalType":"uint256"}],"outputs":[{"name":"lpToken","type":"address","internalType":"contract IERC20Upgradeable"},{"name":"allocPoint","type":"uint256","internalType":"uint256"},{"name":"lastRewardBlock","type":"uint256","internalType":"uint256"},{"name":"accVnoPerShare","type":"uint256","internalType":"uint256"},{"name":"hasHarvestLock","type":"bool","internalType":"bool"},{"name":"totalBoostedAmount","type":"uint256","internalType":"uint256"}],"stateMutability":"view"},{"type":"function","name":"poolInfoMap","inputs":[{"name":"","type":"address","internalType":"address"}],"outputs":[{"name":"lpToken","type":"address","internalType":"contract IERC20Upgradeable"},{"name":"allocPoint","type":"uint256","internalType":"uint256"},{"name":"lastRewardBlock","type":"uint256","internalType":"uint256"},{"name":"accVnoPerShare","type":"uint256","internalType":"uint256"},{"name":"hasHarvestLock","type":"bool","internalType":"bool"},{"name":"totalBoostedAmount","type":"uint256","internalType":"uint256"}],"stateMutability":"view"},{"type":"function","name":"rarityRegistries","inputs":[{"name":"","type":"address","internalType":"address"}],"outputs":[{"name":"","type":"address","internalType":"contract IRarityRegistry"}],"stateMutability":"view"},{"type":"function","name":"reservoir","inputs":[],"outputs":[{"name":"","type":"address","internalType":"contract IVenoVault"}],"stateMutability":"view"},{"type":"function","name":"startBlock","inputs":[],"outputs":[{"name":"","type":"uint256","internalType":"uint256"}],"stateMutability":"view"},{"type":"function","name":"totalAllocPoint","inputs":[],"outputs":[{"name":"","type":"uint256","internalType":"uint256"}],"stateMutability":"view"},{"type":"function","name":"totalLockShare","inputs":[],"outputs":[{"name":"","type":"uint256","internalType":"uint256"}],"stateMutability":"view"},{"type":"function","name":"userInfo","inputs":[{"name":"","type":"uint256","internalType":"uint256"},{"name":"","type":"address","internalType":"address"}],"outputs":[{"name":"amount","type":"uint256","internalType":"uint256"},{"name":"rewardDebt","type":"uint256","internalType":"uint256"},{"name":"nftStakedAmount","type":"uint256","internalType":"uint256"},{"name":"boostedMultiplier","type":"uint256","internalType":"uint256"},{"name":"boostedAmount","type":"uint256","internalType":"uint256"},{"name":"pendingHarvest","type":"uint256","internalType":"uint256"}],"stateMutability":"view"},{"type":"function","name":"vaultPidToLockShare","inputs":[{"name":"","type":"uint256","internalType":"uint256"}],"outputs":[{"name":"","type":"uint256","internalType":"uint256"}],"stateMutability":"view"},{"type":"function","name":"vno","inputs":[],"outputs":[{"name":"","type":"address","internalType":"contract IVenoToken"}],"stateMutability":"view"},{"type":"function","name":"vnoBoostMultiplier","inputs":[{"name":"","type":"uint256","internalType":"uint256"}],"outputs":[{"name":"","type":"uint16","internalType":"uint16"}],"stateMutability":"view"},{"type":"function","name":"vnoPerBlock","inputs":[],"outputs":[{"name":"","type":"uint256","internalType":"uint256"}],"stateMutability":"view"}],"bytecode":{"object":"0x60808060405234610016576106c5908161001c8239f35b600080fdfe608060408181526004918236101561001657600080fd5b600092833560e01c918263074fc4dc1461063c575081630c8cb7951461061d5781631218c59814610590578163151e6aa5146105675781631526fe271461042a57816317caf6f11461040b5781631e55989c146103bd57816320fde21c1461039557816348cd4cb1146103765781635a9b62ef1461035a578163680376fe1461033b5781638b7a01ef1461031c5781638bd8f3ef146102f857816393c46737146102db57816393f1a40b1461025f578163a705b65914610241578163b8383f25146101df578163cef4bfdd14610182578163e73f51c714610163578163ed5f994714610137575063f24053b31461010c57600080fd5b3461013357816003193601126101335760025490516001600160a01b039091168152602090f35b5080fd5b90503461015f57602036600319011261015f576020928291358152600e845220549051908152f35b8280fd5b505034610133578160031936011261013357602090600a549051908152f35b9190503461015f578060031936011261015f5761019d610674565b6001600160a01b031683526014602052808320805460243591908210156101db57845260209384902081841c01549151921b60f0161c61ffff168152f35b8480fd5b9190503461015f57602036600319011261015f57813560125481101561023d579060f061ffff9260126020965280851c7fbb8a6a4669ba250d26cd7a459eca9d215f8307e33aebe50379bc5a3617ec344401549251941b161c168152f35b8380fd5b90503461015f578260031936011261015f5760209250549051908152f35b9190503461015f578060031936011261015f576024356001600160a01b0381169081900361023d5760c093829184358252600660205282822090825260205220805492600182015492600283015490600560038501549385015494015494815196875260208701528501526060840152608083015260a0820152f35b50503461013357816003193601126101335760209051614e208152f35b50503461013357816003193601126101335760209060ff6010541690519015158152f35b5050346101335781600319360112610133576020906003549051908152f35b505034610133578160031936011261013357602090600b549051908152f35b5050346101335781600319360112610133576020905160058152f35b5050346101335781600319360112610133576020906009549051908152f35b505034610133578160031936011261013357905490516001600160a01b039091168152602090f35b90503461015f57602036600319011261015f573560115481101561015f576011602093527f31ecc21a745e3968a04e9570e4425bc18fa8019c68028196b546d1669c200c6801549051908152f35b5050346101335781600319360112610133576020906008549051908152f35b90503461015f57602036600319011261015f573560055481101561015f5760059092527f036b6384b5eca791c62761152d0c79bb0604c104a5fb6f4eb0703f3154bb3db06006909202918201547f036b6384b5eca791c62761152d0c79bb0604c104a5fb6f4eb0703f3154bb3db18301547f036b6384b5eca791c62761152d0c79bb0604c104a5fb6f4eb0703f3154bb3db28401547f036b6384b5eca791c62761152d0c79bb0604c104a5fb6f4eb0703f3154bb3db38501547f036b6384b5eca791c62761152d0c79bb0604c104a5fb6f4eb0703f3154bb3db48601547f036b6384b5eca791c62761152d0c79bb0604c104a5fb6f4eb0703f3154bb3db59096015494516001600160a01b03909416845260208401929092526040830152606082015260ff9092161515608083015260a082015260c090f35b0390f35b50503461013357816003193601126101335760015490516001600160a01b039091168152602090f35b838334610133576020366003190112610133576001600160a01b039161056391908190846105bc610674565b16815260076020522092835416926001810154946002820154600560ff600385015493850154169301549351968796879260a094919796959260c0850198600180881b03168552602085015260408401526060830152151560808201520152565b505034610133578160031936011261013357602090600f549051908152f35b8490843461015f57602036600319011261015f576020926001600160a01b03919082610666610674565b168152601585522054168152f35b600435906001600160a01b038216820361068a57565b600080fdfea2646970667358221220785f08ac60a4756924b52c3c89fb41f5fd8233d2e607cd1a8b9aba89fd82e6f064736f6c634300080f0033","linkReferences":{}},"methodIdentifiers":{"MAX_BOOST_MULTIPLIER()":"93c46737","MAX_NFT_STAKABLE_PER_PID()":"5a9b62ef","MAX_VNO_PER_BLOCK()":"a705b659","fountain()":"f24053b3","harvestLockRatio()":"680376fe","isBoostedFarmingEnabled()":"8bd8f3ef","minVnoRequired(uint256)":"1e55989c","nftBoostMultipliers(address,uint256)":"cef4bfdd","pidZeroRatio()":"e73f51c7","poolInfo(uint256)":"1526fe27","poolInfoMap(address)":"1218c598","rarityRegistries(address)":"074fc4dc","reservoir()":"151e6aa5","startBlock()":"48cd4cb1","totalAllocPoint()":"17caf6f1","totalLockShare()":"0c8cb795","userInfo(uint256,address)":"93f1a40b","vaultPidToLockShare(uint256)":"ed5f9947","vno()":"20fde21c","vnoBoostMultiplier(uint256)":"b8383f25","vnoPerBlock()":"8b7a01ef"},"id":28}