{"abi":[{"type":"function","name":"HASH_LENGTH","inputs":[],"outputs":[{"name":"","type":"uint256","internalType":"uint256"}],"stateMutability":"view"},{"type":"function","name":"SYSTEM_CALLER","inputs":[],"outputs":[{"name":"","type":"address","internalType":"address"}],"stateMutability":"view"},{"type":"function","name":"blockHashes","inputs":[{"name":"","type":"uint256","internalType":"uint256"}],"outputs":[{"name":"","type":"bytes32","internalType":"bytes32"}],"stateMutability":"view"},{"type":"function","name":"blockNumber","inputs":[],"outputs":[{"name":"","type":"uint256","internalType":"uint256"}],"stateMutability":"view"},{"type":"function","name":"coinbaseDepths","inputs":[{"name":"","type":"bytes32","internalType":"bytes32"}],"outputs":[{"name":"","type":"uint256","internalType":"uint256"}],"stateMutability":"view"},{"type":"function","name":"getBlockHash","inputs":[{"name":"_blockNumber","type":"uint256","internalType":"uint256"}],"outputs":[{"name":"","type":"bytes32","internalType":"bytes32"}],"stateMutability":"view"},{"type":"function","name":"getWitnessRootByHash","inputs":[{"name":"_blockHash","type":"bytes32","internalType":"bytes32"}],"outputs":[{"name":"","type":"bytes32","internalType":"bytes32"}],"stateMutability":"view"},{"type":"function","name":"getWitnessRootByNumber","inputs":[{"name":"_blockNumber","type":"uint256","internalType":"uint256"}],"outputs":[{"name":"","type":"bytes32","internalType":"bytes32"}],"stateMutability":"view"},{"type":"function","name":"initializeBlockNumber","inputs":[{"name":"_blockNumber","type":"uint256","internalType":"uint256"}],"outputs":[],"stateMutability":"nonpayable"},{"type":"function","name":"setBlockInfo","inputs":[{"name":"_blockHash","type":"bytes32","internalType":"bytes32"},{"name":"_witnessRoot","type":"bytes32","internalType":"bytes32"},{"name":"_coinbaseDepth","type":"uint256","internalType":"uint256"}],"outputs":[],"stateMutability":"nonpayable"},{"type":"function","name":"verifyInclusion","inputs":[{"name":"_blockNumber","type":"uint256","internalType":"uint256"},{"name":"_wtxId","type":"bytes32","internalType":"bytes32"},{"name":"_proof","type":"bytes","internalType":"bytes"},{"name":"_index","type":"uint256","internalType":"uint256"}],"outputs":[{"name":"","type":"bool","internalType":"bool"}],"stateMutability":"view"},{"type":"function","name":"verifyInclusion","inputs":[{"name":"_blockHash","type":"bytes32","internalType":"bytes32"},{"name":"_wtxId","type":"bytes32","internalType":"bytes32"},{"name":"_proof","type":"bytes","internalType":"bytes"},{"name":"_index","type":"uint256","internalType":"uint256"}],"outputs":[{"name":"","type":"bool","internalType":"bool"}],"stateMutability":"view"},{"type":"function","name":"verifyInclusionByTxId","inputs":[{"name":"_blockNumber","type":"uint256","internalType":"uint256"},{"name":"_txId","type":"bytes32","internalType":"bytes32"},{"name":"_blockHeader","type":"bytes","internalType":"bytes"},{"name":"_proof","type":"bytes","internalType":"bytes"},{"name":"_index","type":"uint256","internalType":"uint256"}],"outputs":[{"name":"","type":"bool","internalType":"bool"}],"stateMutability":"view"},{"type":"function","name":"witnessRoots","inputs":[{"name":"","type":"bytes32","internalType":"bytes32"}],"outputs":[{"name":"","type":"bytes32","internalType":"bytes32"}],"stateMutability":"view"},{"type":"event","name":"BlockInfoAdded","inputs":[{"name":"blockNumber","type":"uint256","indexed":false,"internalType":"uint256"},{"name":"blockHash","type":"bytes32","indexed":false,"internalType":"bytes32"},{"name":"merkleRoot","type":"bytes32","indexed":false,"internalType":"bytes32"},{"name":"coinbaseDepth","type":"uint256","indexed":false,"internalType":"uint256"}],"anonymous":false}],"bytecode":{"object":"0x6080806040523460155761085e908161001a8239f35b5f80fdfe60806040526004361015610011575f80fd5b5f3560e01c80630466efc4146100ef5780631f578333146100ea57806334cdf78d146100b35780634ffd344a146100e557806357e871e7146100e057806361b207e2146100db578063a91d8b3d146100d6578063abb068d6146100d1578063b66c84a1146100cc578063cd4cc08f146100c7578063d269a03e146100c2578063d5ba11fa146100bd578063d761753e146100b85763ee82ac5e146100b3575f80fd5b610195565b610567565b61045f565b610418565b6102df565b6102c5565b61029b565b6100ef565b610265565b610249565b6101ed565b61011d565b34610119576020366003190112610119576004355f526002602052602060405f2054604051908152f35b5f80fd5b346101195760203660031901126101195760043561015073deaddeaddeaddeaddeaddeaddeaddeaddeaddead3314610595565b5f5461015a575f55005b60405162461bcd60e51b8152602060048201526013602482015272105b1c9958591e481a5b9a5d1a585b1a5e9959606a1b6044820152606490fd5b34610119576020366003190112610119576004355f526001602052602060405f2054604051908152f35b9181601f840112156101195782359167ffffffffffffffff8311610119576020838186019501011161011957565b346101195760803660031901126101195760243560443560043567ffffffffffffffff82116101195760209261022a61023f9336906004016101bf565b91606435935f526001865260405f20546106e0565b6040519015158152f35b34610119575f3660031901126101195760205f54604051908152f35b34610119576020366003190112610119576004355f52600160205260405f20545f526002602052602060405f2054604051908152f35b34610119576020366003190112610119576004355f526003602052602060405f2054604051908152f35b34610119575f366003190112610119576020604051818152f35b346101195760a03660031901126101195760243560043560443567ffffffffffffffff8111610119576103169036906004016101bf565b9260643567ffffffffffffffff8111610119576103379036906004016101bf565b90926084359360205f61034b368a866105f5565b828151910160025afa5060205f818160025afa505f51955f5260016020528560405f2054036103dc576103b86103b16103c0936103d8996103aa6103a361039d6103c69c5f52600360205260405f2090565b54610666565b8814610681565b36916105f5565b6044015190565b9236916105f5565b9161072e565b60405190151581529081906020820190565b0390f35b60405162461bcd60e51b815260206004820152601460248201527324b73b30b634b210313637b1b5903432b0b232b960611b6044820152606490fd5b346101195760803660031901126101195760243560443560043567ffffffffffffffff82116101195760209261045561023f9336906004016101bf565b91606435936106e0565b34610119576060366003190112610119576044356004356024356104983373deaddeaddeaddeaddeaddeaddeaddeaddeaddead14610595565b5f54908115610530577f4975e407627f5c539dcd7c961396db91c315f4421c3b0023ba1bcf2e9e9b41f19361052b91835f5260016020528460405f20556104de846106c4565b5f55806104f3865f52600260205260405f2090565b5581610507865f52600360205260405f2090565b55604051948594859094939260609260808301968352602083015260408201520152565b0390a1005b60405162461bcd60e51b815260206004820152600f60248201526e139bdd081a5b9a5d1a585b1a5e9959608a1b6044820152606490fd5b34610119575f36600319011261011957602060405173deaddeaddeaddeaddeaddeaddeaddeaddeaddead8152f35b1561059c57565b60405162461bcd60e51b815260206004820152601f60248201527f63616c6c6572206973206e6f74207468652073797374656d2063616c6c6572006044820152606490fd5b634e487b7160e01b5f52604160045260245ffd5b92919267ffffffffffffffff821161064d5760405191601f8101601f19908116603f0116830167ffffffffffffffff81118482101761064d57604052829481845281830111610119578281602093845f960137010152565b6105e1565b634e487b7160e01b5f52601160045260245ffd5b908160051b918083046020149015171561067c57565b610652565b1561068857565b60405162461bcd60e51b8152602060048201526014602482015273092dcecc2d8d2c840e0e4dedecc40d8cadccee8d60631b6044820152606490fd5b906001820180921161067c57565b906020820180921161067c57565b93929091845f52600360205260405f2054908160051b918083046020149015171561067c5761072b956107176103c0938514610681565b5f52600260205260405f20549236916105f5565b90565b92918184148061075e575b80610755575b61074c5761072b93610766565b50505050600190565b5080511561073f565b508215610739565b939091926107758351601f1690565b61080057825115610800575f949092905b81518610156107ed576001848116036107d657602086830101518181146107cb576107b76107c4926107be92610809565b9460011c90565b956106d2565b9492610786565b505050925050505f90565b6107be6107b76107c4926020898601015190610809565b92919450506107fa571490565b50505f90565b50925050505f90565b5f5260205260205f60408160025afa5060205f818160025afa505f519056fea2646970667358221220e1d7682b383a130aa5a833d2b13729abde1e4fa7e671dcd4363b3978f5ef608c64736f6c634300081a0033","linkReferences":{}},"methodIdentifiers":{"HASH_LENGTH()":"b66c84a1","SYSTEM_CALLER()":"d761753e","blockHashes(uint256)":"34cdf78d","blockNumber()":"57e871e7","coinbaseDepths(bytes32)":"abb068d6","getBlockHash(uint256)":"ee82ac5e","getWitnessRootByHash(bytes32)":"0466efc4","getWitnessRootByNumber(uint256)":"61b207e2","initializeBlockNumber(uint256)":"1f578333","setBlockInfo(bytes32,bytes32,uint256)":"d5ba11fa","verifyInclusion(bytes32,bytes32,bytes,uint256)":"d269a03e","verifyInclusion(uint256,bytes32,bytes,uint256)":"4ffd344a","verifyInclusionByTxId(uint256,bytes32,bytes,bytes,uint256)":"cd4cc08f","witnessRoots(bytes32)":"a91d8b3d"},"id":29}